S00F000062696E2F6D61696E2E733139D8
S11300000080002051110000411100004D1100003A
S113001041110000411100004111000000000000E6
S1130020000000000000000000000000411100007A
S1130030411100004111000041110000B50500000C
S11300404111000041110000411100004111000064
S11300504111000041110000411100004111000054
S11300604111000041110000411100004111000044
S11300704111000041110000411100004111000034
S1130080411100004111000041110000D90E00008F
S11300904111000041110000411100004111000014
S11300A04111000041110000411100004111000004
S11300B041110000411100004111000041110000F4
S11300C041110000411100004111000041110000E4
S11300D041110000411100004111000041110000D4
S11300E041110000411100004111000041110000C4
S11300F041110000411100004111000041110000B4
S113010041110000411100004111000041110000A3
S11301104111000041110000411100004111000093
S11301204111000041110000411100004111000083
S11301304111000041110000411100004111000073
S113014000000000000000000000000000000000AB
S11301504111000041110000411100004111000053
S1130160000000000000000000000000000000008B
S1130170000000000000000000000000000000007B
S1130180000000000000000000000000000000006B
S1130190000000000000000000000000000000005B
S11301A0000000000000000000000000000000004B
S11301B041110000411100004111000041110000F3
S11301C041110000411100004111000041110000E3
S11301D041110000411100004111000041110000D3
S11301E041110000411100004111000041110000C3
S11301F041110000411100004111000041110000B3
S113020041110000411100004111000000000000F4
S11302104111000041110000411100004111000092
S11302204111000041110000411100004111000082
S11302304111000041110000411100004111000072
S11302404111000041110000411100004111000062
S11302504111000041110000411100004111000052
S10F026041110000411100004111000098
S113026C737464696F20696E697420646F6E650AB7
S113027C000A77656C636F6D6520746F2053757A13
S113028C7568614F53205E5F5E20322E302E380A23
S113029C4255494C44204170722032312032303165
S11302AC352030383A32363A30380A002575202554
S11302BC752025752025750A00757074696D652087
S10702CC25750A0086
S11302D00008040C020A060E0109050D030B070FA2
S11302E0000000000000002F0000000700070014B9
S11302F07F147F14242A7F2A126166083343364907
S11303005522500005030000001C22410000412238
S11303101C0014083E081408083E08080000503069
S1130320001010101010006060000020100804027B
S11303303E5149453E00427F4000426151494621B9
S113034041454B311814127F1027454545393C4A25
S11303504949300171090503364949493606494975
S1130360291E0036360000005636000008142241CB
S11303700014141414140041221408020151090633
S1130380324959513E7E1111117E7F494949363E09
S1130390414141227F4141221C7F494949417F0912
S11303A00909013E4149497A7F0808087F00417FD5
S11303B041002040413F017F081422417F404040DA
S11303C0407F020C027F7F0408107F3E4141413E82
S11303D07F090909063E4151215E7F0919294646D4
S11303E04949493101017F01013F4040403F1F20FD
S11303F040201F3F4038403F6314081463070870CF
S113040008076151494543007F414100552A552A57
S1130410550041417F000402010204404040404035
S1130420000102040020545454787F48444438386E
S113043044444420384444487F3854545418087E73
S11304400901020C5252523E7F0804047800447D94
S113045040002040443D007F1028440000417F407C
S1130460007C041804787C08040478384444443834
S11304707C14141408081414187C7C080404084818
S113048054545420043F4440203C4040207C1C20D1
S113049040201C3C4030403C44281028440C505020
S10F04A0503C4464544C44000609090616
S11304AC0008040C020A060E0109050D030B070FC4
S11304BC40420F0000201C0080841E000080250098
S11304CC999E36000040380000093D0000803E0033
S11304DC00004B00404B4C0000204E00808D5B0014
S11304EC00C05D000080700000127A0000007D00E6
S11304FC80969800001BB7000080BB00C0E8CE00BB
S113050C647ADA000024F4000000FA0080A81201D6
S10F051C002D310100366E0140787D0195
S113052872B6054B054A1B680C2101FB0323002204
S11305385A6062B600BFFDE760000020000000209A
S10B054808B500F0F7FDFCE723
S113055070B500221146154B0C2000FB01F55E1905
S1130560746814F0020F1C460AD17668F60707D5A2
S113057050435D5B185AADB280B2854238BF0A461B
S11305800C2048431D5AADB225B11D5AADB2013DF0
S1130590ADB21D5201310829DDD10C235343E118BA
S11305A0498889B2E152024B1A6070BD00000020F4
S10705B060000020C3
S11305B42DE9F00F0E4C0F4D00F0BAFD2368013302
S11305C405D023680C2202FB0353986001E0002346
S11305D42360FFF7BBFF23680C2202FB03556FF073
S11305E40603AA689E4682F30888BDE8F00F7047A4
S10B05F460000020000000205B
S10705FC72B6704718
S107060062B6704723
S107060400BF704778
S113060882B072B6034B1B68019362B6019802B0BC
S10B0618704700BF60000020E0
S10D062008B500F071FD00BFFDE70E
S113062C22F00302403A2DE9F04301EB020C02F1F3
S113063C340802F138093C32884489440746114491
S113064C002272B6114E0C25554374196068C0070C
S113065C12D40F48C4F808C0C8F800004FF0045076
S113066CC9F80070072B98BF082308600120638029
S113067C73536060104600E0082062B60132082A09
S113068C01D00828DDD0BDE8F08300BF00000020B5
S107069C2905000028
S11306A010B500230B490C225A438C1800206060BB
S11306B001330820834260808852F3D1064B0748F7
S11306C007494FF0FF321A60BDE810408022FF2333
S11306D0FFF7ACBF000000206000002049050000C7
S10706E0E40400200A
S11306E407B5FFF78FFF009072B60D4B009A0C21EB
S11306F401FB0232516841F00201516072B6009A62
S11307040C2101FB02325268019262B6019A9107EC
S113071400D500BF019A9207F0D403B05DF804FB3E
S107072400000020AD
S1130728002372B6064A0C2101FB0322516821F00A
S11307380201516062B60133082BF2D1704700BF41
S10707480000002089
S113074C08B5FFF7A7FF00F005F8BDE8084000F076
S105075CE7B8F8
S113076010B500220949002341F822300132082A39
S1130770F8D1074C1801211801330022042B4A60D8
S11307802250CA608A60F4D110BD00BF6405002005
S107079084050020B8
S113079438B5064C0546204600F0F8F8284600F023
S11307A41DFC2046BDE8384000F00CB9C405002007
S11307B410B50446074800F0E9F8013C14F8010FA9
S11307C410B1FFF7E5FFF9E70248BDE8104000F077
S10B07D4F9B800BFD0050020B4
S11307DC30B585B0031E4FF00002A8BF14468DF847
S11307EC0F20BCBF5B4201240A220A2193FBF1F5C2
S11307FC01FB153301A830331354511E2B460DB194
S113080C0A46F2E72CB104AB0B442D2203F80C2C52
S10F081C0A461044FFF7C8FF05B030BDC9
S11308281FB500238DF80F300A230A24B0FBF4F116
S113083804FB110001AA303098545C1E084609B123
S11108482346F2E7D018FFF7B1FF04B010BD4D
S11308561FB500238DF80F300A2300F00F01092974
S113086601AA94BF303157310009D15403F1FF3145
S113087601D00B46F1E7D018FFF799FF05B05DF8F4
S105088604FB6D
S11308880FB437B506AC264854F8045B00F07CF87E
S113089801940024285D002839D0252803D0FFF7C7
S11308A875FF0134F6E72B195878692816D008D84B
S11308B8252828D0632828D1019B1A1D019218786D
S11308C821E0752811D0782816D073281DD1019BF2
S11308D81A1D18680192FFF769FF16E0019B1A1D9B
S11308E818680192FFF776FF0FE0019B1A1D18683C
S11308F80192FFF795FF08E0019B1A1D1868019201
S1130908FFF7A5FF01E0FFF741FF0234C2E70448FF
S113091800F056F803B0BDE8304004B0704700BF9B
S1070928CC050020D6
S113092C10B50E4800F024F80D4800F021F80D48DD
S113093C00F01EF80C4800F01BF808242020FFF7E8
S113094C23FF013CFAD120240A20FFF71DFF013CB0
S113095CFAD10648BDE81040FFF790BFC40500204B
S113096CC8050020D0050020CC0500206C02000036
S113097C10B50446FFF73CFE00232360BDE810408D
S107098CFFF738BE77
S113099013B50446FFF732FE23680193FFF730FED8
S11309A0019B0BB1FFF79EFE019B002BF2D1FFF7D9
S11309B025FE23680193019B002BEBD101232360C7
S10B09C0FFF71EFE02B010BD9A
S11309C808B5FFF7D7FFFFF7ABFEBDE80840FFF710
S10509D815BE46
S11309DC08B500F0DFFBFFF7B3FE054905484FF4FB
S11309EC00720823FFF71CFEFFF714FE002008BD5D
S10B09FCD4070020810B000068
S1130A0470B52DED068B08EE901A9FED318A08EE31
S1130A14E88AF5EEC08AF1EE10FA064648BFB1EE54
S1130A24488A002507EE905ADFED2A6AF8EEE7AA11
S1130A349FED297ACAEEA6AA0024DFED287A7AEE7D
S1130A44C7AAB0EE66AA6AEEA7AAF0EE479AB0EE79
S1130A54679A06EE104AB8EEC67A334687EE0A7AE7
S1130A64F0EE6A7A37EE697A27EE097A67EEA76AB6
S1130A7457EE076A37EE077AB0EE486A07EE276A3C
S1130A8476EEA86A26EE067A06EEA67AF0EE467AA2
S1130A949FED136AB4EEC67AF1EE10FA03F1FF3354
S1130AA403D51BB1B0EE667AE0E71BB920462946AC
S1130AB4012202E0204629460022013400F050F9C4
S1130AC4602CC6D10135602DACD1BDEC068B70BD54
S1130AD40000803F0000C0420000003F000080404E
S1070AE400000040CA
S1130AE82DE9F341FF2000F029F91E481E4E00F0BD
S1130AF853F900F0F5F84FF47A6000F029FA00246D
S1130B082746254600F016FA07EE105AF8EEC77A7B
S1130B189FED167A77EEA77A8046C7EE877A10207B
S1130B2801359FED137A37EEC77A17EE101AFFF7DF
S1130B3865FF00F0FFF9C8EB0000844238BF0446A3
S1130B48864228BF0646074400F0CAF8192DD9D1B1
S1130B580094084810213A463346FFF791FE02B044
S1130B68BDE8F0817D02000040420F000000C84249
S10B0B780000803FB8020000F8
S1130B8008B50648FFF780FE00F0D8F9014604488E
S1130B90FFF77AFEFFF7A8FFF6E700BF7D0200002B
S1070BA0C502000086
S1050BA4704794
S1130BA6302358430622B0FBF2F010F1FF3001D394
S1090BB600BFFAE77047DE
S1130BBC08B5064B06481B6820211B680A46984753
S1130BCC0120BDE80840FFF7E8BF00BF200000018A
S1070BDC004002408F
S1130BE008B5064B06481B6820211B68002298475D
S1130BF00120BDE80840FFF7D6BF00BF2000000178
S1070C00004002406A
S1130C0470B504460825144B14481B68124E1B681F
S1130C1414F0800F4FF0800114BF0A460022984755
S1130C240120FFF7BEFF33680C481B6810210A46F5
S1130C3498470120FFF7B5FF336808481B68102163
S1130C4400229847013D0120FFF7ABFF640015F033
S1130C54FF05E4B2D7D170BD20000001005000406C
S1130C6470B5174C174D2368174EDB6B28462021AB
S1130C74984723683046DB6B102198472368304635
S1130C84DB6B2021984723682846DB6B10219847A7
S1130C9423682846DB6B8021984723682021284653
S1130CA40A461B6898472368102130461B680A4685
S1130CB49847FFF793FFFF20BDE87040FFF7A0BFFC
S10F0CC4200000010050004000400240ED
S1130CD0044B00F00F0200099A5C185C1201D2B2B6
S10B0CE010437047D00200002C
S1130CE870B5FFF767FFC020FFF788FF01240C26C3
S1130CF86643B6B2A6F10C05E0B2ADB2FFF7E4FF65
S1130D08FFF77CFF0C4B585D0135ADB2FFF776FF5A
S1130D18B542F7D101340020A4B2FFF76FFF612C6C
S1130D28E5D10020FFF76AFF0220FFF738FFBDE88E
S10F0D387040FFF751BF00BFD409002039
S1130D440022064900231144C85401330C2BFBD15F
S1130D540C32B2F5906FF4D1704700BFD40900206F
S1130D64602928BF60210C23602828BF60204B43DE
S1130D7410B503EBD00372B6C043012400F007009E
S1130D840549844012B9CA5C144302E0CA5C22EAED
S10F0D940404CC5462B610BDD409002045
S1130DA000212DE9F0430B460126721E92B2825CAB
S1130DB0002A43D00A2A36D0203A4FF0050C0CFB07
S1130DC002FC00241FFA8CFC22460127A7400025C0
S1130DD0DFF87080E04418F8058018EA070F18BFA0
S1130DE042F0010201355200052DD2B2F0D1144D6A
S1130DF0920003EB05080C2505FB04F7D2B201347D
S1130E006FEA0209082C08F80790DED1013189B293
S1130E10B1FBF5F205FB1215ADB20DB1013300E0E3
S1130E2061339BB207E00C22B3FBF2F353439BB252
S1130E3060339BB200210136B6B2B6E7BDE8F08359
S10B0E40D4090020E0020000C7
S1130E4810B5002319494FF4806221F8132018497A
S1130E5821F813201749002221F813200133042B09
S1130E68F0D1154B154C1A60154B16481B689B6935
S1130E78984723681448DB68222198472368124856
S1130E889B6B41F28832FF219847104B1B68232043
S1130E981B68984723680C48DB6C01219847236832
S1130EA809485B68FF21984710BD00BFE82D002062
S1130EB8DC2D0020D42D0020E42D00203C0000016E
S1130EC844000001000400F0000003404800000151
S1130ED808B50023114A32F8131089B229B132F83F
S1130EE8131089B2013989B207E00D4931F813109A
S1130EF889B222F813100B4A012122F81310013386
S1130F08042BE7D1084B09481A6801321A60084BC8
S1130F181B6801211B68984708BD00BFE82D002005
S1130F28DC2D0020D42D0020E42D002000000340F7
S1070F383C00000174
S1130F3C82B072B6044B1B68019362B601980A2303
S10F0F4CB0FBF3F002B07047E42D00206D
S1130F5813B50446FFF7EEFF20440190019CFFF708
S1130F68E9FF844202D900F0E5F8F7E702B010BDC2
S1130F7838B5134D134C2B6820469B6998472B684A
S1130F882046114C5B699847236804209B6E984758
S1130F9823680E4C9B6E082098472046042100F0D5
S1130FA8E7FA2046082100F0D5FA094B1B685C686B
S1130FB800F0ECFA012201460648A04738BD00BFFC
S1130FC844000001002000F020000001005000400F
S10B0FD81C00000100000240AE
S1130FE008B5034B1B6801461B680248984708BDB7
S10B0FF01400000100C00040E0
S1130FF838B50E4C0E4823689B69984723680D48FA
S11310089B6998470C4B1B6803215B6D4FF040208C
S113101898470A4B1B685D6923681B6E98474FF411
S1131028E132014660230648A84738BD4400000160
S1131038001800F0000800F020000001140000016E
S107104800C00040A0
S10D104C00BF00BF00BF00BF7047E3
S113105870B504460825184B174E1B6817481B68BB
S113106814F0800F4FF0800114BF0A4600229847FD
S1131078FFF7E8FF336811481B6810210A469847B0
S1131088FFF7E0FF40210D4800F061FA430633689A
S11310980A481B684FEA44044FF010014FF000025D
S11310A8E4B248BF44F001049847FFF7CBFF013D81
S11310B8D1D1204670BD00BF20000001005000407F
S11310C810B50C4C0C4823689021DB6B98472368B7
S11310D809489B6B40219847236807485C6940216D
S11310E801220A23A0470A24FF20FFF7B1FF013C8D
S10F10F8FAD110BD20000001005000409F
S105110470472E
S113110810B5084C23684FF4FA505B699847236874
S1131118DB68984723685B689847034B1B685B68E0
S10F1128984710BD380000014800000189
S10B1134EFF308800046704748
S107113C30BF704705
S10F1140684620F007018D4600BFFDE763
S107114C00BFFDE7F8
S1131150094A0A48801A80100023834206D00849AD
S113116051F8231042F823100133F6E700F034F964
S113117000F03AF9FFF732BC000000200000002024
S10B118000000020AFF3008021
S113118808B5034B03481B68DB6D984708BD00BFCF
S10B1198440000014005C00100
S11311A008B5FFF7F1FF0C4B1B681B68984700F06C
S11311B037F8FFF721FFFFF747FEFFF7F3FCFFF7D0
S11311C0DBFEFFF781FFFFF79DFF00F0DDF8BDE8D0
S10F11D00840FFF747BD00BF7800000195
S11311DCC20710B5044606D50C4B0D481B680221FA
S11311EC1B6800229847A30706D5084B08481B68C0
S11311FC08211B6800229847600706D5034B044856
S113120C1B6804211B680022984710BD20000001B4
S107121C0050024038
S113122070B51C4C1C4823681C4D9B699847236867
S11312301B489B69984723681A489B699847236809
S113124019489B699847236818489B6998472368FD
S113125017489B69174C98472B682046DB6B0E2177
S113126098472B6820469B6B112198472B68204692
S11312705E69102101220A23B0472B6801215D69B0
S113128020460A460A23A8470720BDE87040FFF716
S1131290A5BF00BF44000001000800F020000001C9
S11312A0010800F0020800F0030800F0040800F050
S10B12B0050800F000500240A3
S11312B808B5064B06481B6820211B680A46984750
S11312C86523013B01D000BFFBE708BD20000001F6
S10712D8004002408C
S11312DC08B5064B06481B6820211B68002298475A
S11312EC6523013B01D000BFFBE708BD20000001D2
S10712FC0040024068
S1131300044B00F00F0200099A5C185C1201D2B27F
S10B131010437047AC04000017
S1131318F8B50746FFF7CCFFC020FFF799FE002475
S1131328661CF0B2FFF7E8FFFFF792FE0C2303FBFD
S113133804740025605D0135FFF78AFE0C2DF9D190
S11313480020FFF785FE602E3446E9D10020FFF720
S11313587FFEC923013B01D000BFFBE7BDE8F8408D
S1071368FFF7B8BF10
S113136C10B5002200238418E15401330C2BFAD15C
S10D137C0C32B2F5906FF5D110BDEC
S113138838B50F4C0F4823680F4DDB6B2021984765
S113139823682846DB6B20219847FFF79BFF2368C7
S11313A80A4C1B68202128460A4698472046FF21F4
S11313B8FFF7D8FF2046BDE83840FFF7A9BF00BFB4
S11313C8200000010040024000500040640000205A
S11313D8024B1A6842F470021A60704788ED00E004
S11313E8024B1A6822F040421A60704734EF00E05A
S11313F8D0F8003412F0010F10B500F5806414BF62
S11314080B438B43236012F0020FD0F8202400F51D
S1111418846314BF114322EA0101196010BD60
S1131426F0B5C2F34116002441FA04F5ED0711D5CF
S1131436D0F8C47F65004FF0030C0CFA05FC27EACC
S11314460C07C0F8C47FD0F8C47F06FA05F53D43FF
S1131456C0F8C45F0134082CE6D1D0F8004512F078
S1131466010F00F5A06514BF0C438C432C60D0F823
S1131476044512F0020F00F2045514BF0C438C43CA
S11314862C60D0F8084512F0040F00F5A16514BFCE
S11314960C438C432C60D0F8184512F0080F00F565
S11314A6A36514BF0C438C432C6012F0100FD0F8C4
S11314B63C2500F23C5414BF0A438A432260D0F808
S11314C60C2513F0010F00F20C5414BF0A438A438F
S11314D62260D0F8102513F0020F00F5A26414BFA1
S11314E60A438A432260D0F8142513F0040F00F24D
S11314F6145414BF0A438A432260D0F81C2513F0FF
S1131506080F00F21C5414BF0A438A432260D0F821
S1131516442513F4007F00F2445414BF0A438A435B
S11315262260D0F8402513F4407F00F5A86414BF68
S11315360A438A43226000F5A5621BB9D0F8283510
S1131546194303E0D0F8283523EA01011160F0BD00
S109155650F8210070476B
S113155C70B5022205460C46FFF748FF2846214683
S10F156C01220923BDE87040FFF757BFBF
S113157870B5022205460C46FFF73AFF2846214675
S10F158801220823BDE87040FFF749BFB2
S1131594414B19681A69002AB4BF02F0700301F0C0
S11315A43003202B70B515D004D853B1102B71D14E
S11315B43A4B10E0302B0AD0702B6BD14FF400431C
S11315C409E0C1F38410364B53F8203003E047F2AA
S11315D4305300E0334B002A02DA12F4006F01E0C6
S11315E411F4006F37D130480468456805F01F06CC
S11315F4C5F304200136760001307043B3FBF0F0E8
S1131604C4F389234343C4F309059B0A05FB00334C
S11316142648006800F47040B0F5405F41F480014E
S113162413D007D8B0F5805F18D0B0F5005F12D19D
S11316341F4814E0B0F5E04F09D0B0F5104F08D0BE
S1131644B0F5804F07D11B4809E01B4807E01B484D
S113165405E01B4803E04FF0FF3000E019484C025A
S113166414D5002A0DDA510005D5160503D45B0000
S1131674C2F3865201E0C2F3C5520132B3FBF2F362
S113168404E0C1F3C3510131B3FBF1F3834238BF26
S1131694184670BD002070BD60E00F400024F400C3
S11316A4BC04000000093D0060E10F4010E00F405D
S11316B4AA40F903005A620280F0FA0240787D01DC
S10B16C4002D310100B4C4043F
S90311519A
