S00F000062696E2F6D61696E2E733139D8
S3150800000000000220210B0008ED0A0008F90A000882
S31508000010ED0A0008ED0A0008ED0A000800000000D5
S31508000020000000000000000000000000ED0A0008C3
S31508000030ED0A000800000000ED0A0008B5020008F5
S31508000040ED0A0008ED0A0008ED0A0008ED0A0008A6
S31508000050ED0A0008ED0A0008ED0A0008ED0A000896
S31508000060ED0A0008ED0A0008ED0A0008ED0A000886
S31508000070ED0A0008ED0A0008ED0A0008ED0A000876
S31508000080ED0A0008ED0A0008ED0A0008ED0A000866
S31508000090ED0A0008ED0A0008ED0A0008ED0A000856
S315080000A0ED0A0008ED0A0008ED0A0008ED0A000846
S315080000B0ED0A0008ED0A0008D10D0008ED0A00084F
S315080000C0ED0A0008ED0A0008ED0A0008ED0A000826
S315080000D0ED0A0008ED0A0008ED0A0008ED0A000816
S315080000E0ED0A0008ED0A0008ED0A0008ED0A000806
S315080000F0ED0A0008ED0A0008ED0A0008ED0A0008F6
S31508000100ED0A0008ED0A0008ED0A0008ED0A0008E5
S31508000110ED0A0008ED0A0008ED0A0008ED0A0008D5
S31508000120ED0A0008ED0A0008ED0A0008ED0A0008C5
S31508000130ED0A0008ED0A0008ED0A0008ED0A0008B5
S31508000140ED0A0008ED0A0008ED0A0008ED0A0008A5
S31508000150ED0A0008ED0A0008ED0A0008ED0A000895
S31508000160ED0A0008ED0A0008ED0A0008ED0A000885
S31508000170ED0A0008ED0A0008ED0A0008ED0A000875
S30D08000180ED0A0008ED0A00086B
S3150800018838B50F4C0F4D1048104900F007FA2D1BCB
S3150800019821460F4800F002FA29460E4800F0FEF9F3
S315080001A80D4B0E48E11A294400F0F8F90C480D4998
S315080001B800F0F4F90C48BDE8384000F0EFB900BF84
S315080001C80000002000000220D00F00089E0F00083B
S315080001D8E10F0008F00F00088C0B0020FE0F00083E
S315080001E80C1000088C0B00201C10000808B500F03D
S315080001F8CFFB4FF4005000F06FFE00F049F9FFF707
S31508000208BFFF054905484FF40072082300F08AF82D
S3150800021800F082F8002008BD10020020C90700086F
S3150800022872B6054B054A1B680C2101FB03230022FD
S315080002385A6062B600BFFDE770040020100400206B
S3150800024808B500F025FDFCE770B500221146154BE8
S315080002580C2000FB01F55E19746814F0020F1C46A1
S315080002680AD17668F60707D550435D5B185AADB2CA
S3150800027880B2854238BF0A460C2048431D5AADB29B
S3150800028825B11D5AADB2013DADB21D52013108293D
S31508000298DDD10C235343E118498889B2E152024B50
S315080002A81A6070BD10040020700400202DE9F00FB4
S315080002B8EFF308820D4C0E4D2368013305D02368E9
S315080002C80C2101FB03539A6001E000232360FFF722
S315080002D8BBFF23680C2202FB03556FF00603AA68C6
S315080002E89E4682F30888BDE8F00F70477004002020
S315080002F81004002072B6704762B6704700BF704790
S3150800030882B072B6034B1B68019362B6019802B0B5
S31508000318704700BF7004002008B500F0A7FC00BFAE
S31508000328FDE7000022F00302403A2DE9F04301EB0D
S31508000338020C02F1340802F138093C32884489442F
S3150800034807461144002272B6114E0C2555437419F6
S315080003586068C00712D40F48C4F808C0C8F8000077
S315080003684FF00450C9F80070072B98BF0823086097
S315080003780120638073536060104600E0082062B667
S315080003880132082A01D00828DDD0BDE8F08300BF6D
S31508000398100400202902000810B500230B490C2276
S315080003A85A438C1800206060013308208342608015
S315080003B88852F3D1064B074807494FF0FF321A60AF
S315080003C8BDE810408022FF23FFF7ACBF10040020C9
S315080003D870040020490200087404002007B5FFF7D6
S315080003E88FFF009072B60D4B009A0C2101FB023262
S315080003F8516841F00201516072B6009A0C2101FB5E
S3150800040802325268019262B6019A910700D500BF76
S31508000418019A9207F0D403B05DF804FB1004002093
S31508000428002372B6064A0C2101FB0322516821F003
S315080004380201516062B60133082BF2D1704700BF3A
S315080004481004002082B0019000BF72B6064A019BCC
S315080004580C2101FB03235B68009362B6009BD8074F
S31508000468F2D402B0704700BF1004002008B504484B
S3150800047800F028F9034B044A1360044A136008BDC0
S31508000488FC0400208C0B0020F4040020F80400204B
S3150800049808B5FFF781FFFFF7E9FF00F0F9F8BDE8AF
S315080004A8084000F0CDB8000038B5064C0546204689
S315080004B800F012F9284600F0B7F92046BDE838409A
S315080004C800F026B90005002010B50446074800F0D4
S315080004D803F9013C14F8010F10B1FFF7E5FFF9E736
S315080004E80248BDE8104000F013B900BF0C0500200B
S315080004F830B585B0031E4FF00002A8BF14468DF824
S315080005080F20BCBF5B4201240A220A2193FBF1F59E
S3150800051801FB153301A830331354511E2B460DB170
S315080005280A46F2E72CB104AB0B442D2203F80C2C2F
S315080005380A461044FFF7C8FF05B030BD1FB50023AB
S315080005488DF80F300A230A24B0FBF4F104FB1100D6
S3150800055801AA303098545C1E084609B12346F2E7CA
S31508000568D018FFF7B1FF04B010BD1FB500238DF8EA
S315080005780F300A2300F00F01092901AA94BF303168
S3150800058857310009D15403F1FF3101D00B46F1E781
S31508000598D018FFF799FF05B05DF804FB0FB437B517
S315080005A806AC264854F8045B00F096F80194002433
S315080005B8285D002839D0252803D0FFF775FF0134B0
S315080005C8F6E72B195878692816D008D8252828D088
S315080005D8632828D1019B1A1D0192187821E07528ED
S315080005E811D0782816D073281DD1019B1A1D1868B2
S315080005F80192FFF769FF16E0019B1A1D1868019218
S31508000608FFF776FF0FE0019B1A1D18680192FFF79E
S3150800061895FF08E0019B1A1D18680192FFF7A5FFC8
S3150800062801E0FFF741FF0234C2E7044800F070F81A
S3150800063803B0BDE8304004B0704700BF0805002085
S3150800064810B50E4800F03EF80D4800F03BF80D4886
S3150800065800F038F80C4800F035F808242020FFF791
S3150800066823FF013CFAD120240A20FFF71DFF013C8D
S31508000678FAD10648BDE81040FFF790BF00050020EC
S31508000688040500200C050020080500201F10000896
S3150800069810B500220949002341F822300132082AF8
S315080006A8F8D1074C1801211801330022042B4A6097
S315080006B82250CA608A60F4D110BD00BF1005002018
S315080006C83005002010B50446FFF714FE0023236002
S315080006D8BDE81040FFF710BE13B50446FFF70AFE3B
S315080006E823680193FFF708FE019B0BB1FFF776FE17
S315080006F8019B002BF2D1FFF7FDFD23680193019BAF
S31508000708002BEBD101232360FFF7F6FD02B010BDDD
S3150800071808B5FFF7D7FFFFF783FEBDE80840FFF7E0
S31508000728EDBD000010B50024214603480134FFF743
S3150800073835FF0A2CF8D110BD3010000810B54FF453
S31508000748804000F0C9FB1248FFF728FF1148FFF759
S3150800075825FF114811494FF400720823FFF7E2FDF7
S315080007680828044601D10E4807E00E482146FFF737
S3150800077815FF2046FFF766FE0B48FFF70FFF4FF4F5
S31508000788804000F0AFFB4FF4FA7000F057FBD6E74D
S315080007984E100008581000082D070008700700209A
S315080007A86F100008861000082A10000808B50348C4
S315080007B8FFF7F4FE642000F041FBF8E7A2100008F2
S315080007C808B51348FFF7EAFE124913484FF40072B2
S315080007D80823FFF7A7FD114811494FF400720823AB
S315080007E8FFF7A0FD4FF4005000F076FB00F018FB69
S315080007F84FF47A71B0FBF1F10A48FFF7CFFE4FF4D0
S31508000808005000F06FFB4FF4FA6000F017FBE9E7B9
S31508000818B31000087005002045070008B50700084A
S3150800082870090020EE100008034B1A88520601D4F6
S3150800083800BFF9E7988070470010014030B51020CE
S3150800084887B0012100F00CF901201C4D014600F083
S31508000858EFF84FF4C063002400932846022369463C
S315080008688DF804308DF805308DF806408DF8074068
S3150800087800F03EFB28460921072200F07AFB0722EA
S3150800088828460A2100F075FBADF80C40ADF80E4075
S31508000898ADF81040ADF81440094C4FF4E133029313
S315080008A820460C2302A9ADF8123000F00BF82046B2
S315080008B8012100F061F807B030BD00BF0000024012
S315080008C800100140038ACA889BB223F4405330B506
S315080008D813430D46038283890989AA8823F4B053EA
S315080008E80A43698923F00C030A431B0492B21B0CBA
S315080008F813438381838AAA899BB223F440731343DB
S3150800090885B083820446684600F04EF8194B9C4227
S3150800091803D003F580639C4201D1039B00E0029B48
S31508000928A28912B2002A2A684FF01901B4BF5200E8
S3150800093892005943B1FBF2F16423B1FBF3F21201B9
S31508000948100903FB1011A08900B2002806DAC900AD
S315080009583231B1FBF3F303F0070305E0090132313D
S31508000968B1FBF3F303F00F031A4392B2228105B0E1
S3150800097830BD00BF00100140838919B19BB243F40A
S31508000988005303E023F400531B041B0C83817047B0
S3150800099808B500F07FF900F061FAFFF74FFFBDE8E8
S315080009A8084000F0C7B900001D4B9A6802F00C020F
S315080009B8042A10B503D0082A03D01A4B18E01A4B94
S315080009C816E059685A6811F4800F596814BF164B0F
S315080009D8144B02F03F02B3FBF2F3114A5268C2F312
S315080009E80142C1F3881101324B435200B3FBF2F3BB
S315080009F80B4903608B680D4AC3F30313D45C036879
S31508000A08E34043608C68C4F38224145D23FA04F433
S31508000A1884608968C1F34231525CD340C36010BD13
S31508000A28003802400024F40000127A000000002072
S31508000A38044B1A6B09B1104301E022EA0000186357
S31508000A48704700BF00380240044B1A6C09B11043BE
S31508000A5801E022EA00001864704700BF0038024027
S31508000A68044B5A6C09B1104301E022EA00005864A5
S31508000A78704700BF00380240C278037810B50AB339
S31508000A88164A4478D268D243C2F30222C2F1040154
S31508000A98C9B204FA01F10F2444FA02F28478C9B2F9
S31508000AA822400A4303F1604303F561431201D2B2B7
S31508000AB883F8002303780122590903F01F0302FA71
S31508000AC803F306E05909012203F01F0302FA03F3A8
S31508000AD82031034A42F8213010BD00BF00ED00E07E
S31508000AE800E100E0684620F007018D4600BFFDE7F3
S31508000AF84FF4005000F0F0F9064B013B01D000BF57
S31508000B08FBE74FF4005000F0EDF9024B013BEFD03C
S31508000B1800BFFBE7819698000E4A0F48801A801096
S31508000B280023834206D00D4951F8231042F82310B2
S31508000B380133F6E70A4BD3F8882042F47002C3F863
S31508000B48882003F50C735A6822F040425A60FFF76A
S31508000B584DBB00BF0000002010000020101100083F
S31508000B6800ED00E03B4BD3F8882042F47002C3F846
S31508000B788820D3F8882042F47002C3F88820364BB8
S31508000B881A6842F001021A6000229A60196821F070
S31508000B98847121F48031196030495960196882B026
S31508000BA821F480211960DA60009201921A6842F4E9
S31508000BB880321A60284B1A6802F400320192009AA9
S31508000BC801320092019A1AB9009AB2F5A06FF1D1CA
S31508000BD81B6813F4003318BF01230193019B012BEB
S31508000BE805D01C4B4FF000629A6002B070471A4B4A
S31508000BF81A6C42F080521A64194A116841F4804105
S31508000C0811609A6842F090029A609A6842F4004223
S31508000C189A609A6842F4A0529A60124A5A601A6808
S31508000C2842F080721A6019680B4A8901FBD50E4B87
S31508000C3840F205611960936823F00303936093688B
S31508000C4843F002039360044B9B6803F00C03082BDC
S31508000C58F9D1C6E700ED00E000380240103000245C
S31508000C680070004008544007003C0240054B064AFD
S31508000C785A60064AF02182F8231000229A60072251
S31508000C881A60704710E000E04090020000ED00E0AE
S31508000C9830BF7047FFF766BF1C4A038890429BB26D
S31508000CA812D002F5806290420ED0B0F1804F0BD078
S31508000CB8A2F58032904207D002F58062904203D0AE
S31508000CC802F58062904203D14A8823F070031343E1
S31508000CD80F4A904208D002F58062904204D023F465
S31508000CE840730A899BB2134303804B68C3620B8817
S31508000CF80385064B984203D003F58063984201D1D1
S31508000D088B7A038601238382704700BF000001405F
S31508000D1800100040038819B19BB243F0010303E0B1
S31508000D2823F001031B041B0C03807047C94389B2CF
S31508000D380182704730B5002085B01E4A4FF480639B
S31508000D4822F810301C4A22F810301C4B002423F8CD
S31508000D581040013004282546EFD1194B01211C60A3
S31508000D68FFF772FEADF80640ADF80C408DF80E4058
S31508000D78144C5323ADF804302046312301A90293B5
S31508000D88FFF78AFF20460121FFF7C4FFA3899BB214
S31508000D9843F00103A3811E238DF80030684601231A
S31508000DA88DF801508DF802308DF80330FFF764FE90
S31508000DB805B030BD840B0020780B0020700B00208E
S31508000DC8800B0020000800400023104A32F8131050
S31508000DD889B229B132F8131089B2013989B207E004
S31508000DE80B4931F8131089B222F81310094A012160
S31508000DF822F813100133042BE7D1074B07481A6862
S31508000E08012101321A60FFF791BF00BF840B002049
S31508000E18780B0020700B0020800B0020000800408B
S31508000E2882B072B6044B1B68019362B601980A230E
S31508000E38B0FBF3F002B07047800B002013B50446E8
S31508000E48FFF7EEFF20440190019CFFF7E9FF844273
S31508000E5802D9FFF71DFFF7E702B010BD13B5012049
S31508000E680146FFF7E5FD02200121FFF7E1FD042011
S31508000E780121FFF7DDFD08200121FFF7D9FD08202C
S31508000E880121FFF7D5FD10200121FFF7D1FD20200C
S31508000E980121FFF7CDFD0F4C4FF460430093012362
S31508000EA88DF8043003220023204669468DF806305B
S31508000EB88DF807308DF8052000F01AF84FF400531E
S31508000EC863834FF4804363834FF40043638302B01C
S31508000ED810BD00BF00140240014B80B2188370474A
S31508000EE800140240014B80B2588370470014024030
S31508000EF82DE9F0410F68002301229A4002EA070506
S31508000F08954231D15A00032406689440E4432640A2
S31508000F1806600E79D0F800C006FA02F8013EF6B265
S31508000F2848EA0C0C012EC0F800C014D8866891F857
S31508000F3805C02640866086680CFA02FC4CEA060656
S31508000F488660466826EA050545608D7946689D40A7
S31508000F58ADB235434560C5682C40C460CD79C468D0
S31508000F6805FA02F22243C2600133102BC4D1BDE848
S31508000F78F08101F00703C90800EB810010B59B0052
S31508000F88046A0F21994024EA01010162016A9A401C
S31508000F981143016210BD00000DC0A0E1F8DF2DE97C
S31508000FA804B04CE228D04BE2F06F9DE81EFF2FE113
S31508000FB80DC0A0E1F8DF2DE904B04CE228D04BE2D9
S31508000FC8F06F9DE81EFF2FE1626F6F74696E6720E8
S31508000FD866726F6D2025750A0072616D20737461DB
S31508000FE87274202575200A0072616D2073697A6506
S31508000FF8202575200A0072616D20667265652025B0
S3150800100875200A00686561702073746172742025FA
S3150800101875200A000A0A00737464696F20696E6984
S315080010287420646F6E650A00616E6F746865722055
S315080010386368696C64207468726561642C207265DB
S31508001048732025750A0074687265616420310A0080
S315080010586372656174696E67206368696C64207475
S3150800106868726561640A00746872656164206372EF
S31508001078656174696E67206572726F720A007761B6
S315080010886974696E6720666F722074687265616430
S3150800109820257520646F6E650A00706572696F642D
S315080010A86963207468726561640A000A77656C6307
S315080010B86F6D6520746F2053757A7568614F532074
S315080010C85E5F5E20322E322E300A4255494C442045
S315080010D853657020203620323031352031303A3584
S315080010E8373A32340A006D61696E20746872656130
S315080010F8642069646C652C20757074696D65202593
S30D08001108750A00000000000052
S31508001110000000000102030401020304060708098F
S70508000B21C6
